S01D000050726F796563746F2047797073792044616E6765722E7372656305
S11300000C943A000C9457000C9457000C9457002D
S11300100C9457000C9457000C9457000C94570000
S11300200C9457000C9457000C9457000C945700F0
S11300300C9457000C9457000C9457000C945700E0
S11300400C9422040C9457000C9457000C94570001
S11300500C9457000C9469020C9457000C945700AC
S11300600C9457000C9457006364696E6F70737539
S113007078585B0011241FBECFEFD8E0DEBFCDBFA0
S113008011E0A0E0B1E0EAEAF2E102C005900D92CD
S1130090A234B107D9F721E0A2E4B1E001C01D9276
S11300A0A83AB207E1F70E94C3020C9453090C94D6
S11300B0000080E680937C00EAE7F0E08EE880832D
S11300C08081806480830895F999FECF72BD61BDFB
S11300D080BD8FB384608FBB8FB382608FBB089564
S11300E0F999FECF92BD81BD8FB381608FBB80B57E
S11300F00895EF92FF920F931F93CF936530C0F44E
S11301007C0170E08B01000F111F000F111F060FFF
S1130110171FC0E00BC06C2F70E0F701E60FF71F4C
S1130120600F711F80810E946400CF5FC53098F317
S1130130CF911F910F91FF90EF900895CF92DF928E
S1130140EF92FF920F931F93CF936530C8F47C0115
S113015070E08B01000F111F000F111F060F171FF6
S1130160C0E00CC08C2F90E06701C80ED91E800F30
S1130170911F0E947000F6018083CF5FC53090F319
S1130180CF911F910F91FF90EF90DF90CF90089542
S1130190CF92DF92EF92FF9220914A0130E0A0EDDE
S11301A0B7E00E944205C12CD12C7601CA94A70164
S11301B096010E942005C9018C509E4F0E9409049B
S11301C02091490130E0A0EDB7E00E944205A7016B
S11301D096010E942005C9018C509E4F0E94100474
S11301E02091480130E0A0EDB7E00E944205A7014C
S11301F096010E942005C9018C509E4F0E94A104C3
S11302002091470130E0A0EDB7E00E944205A7012C
S113021096010E942005C9018C509E4F0E94A6049D
S11302202091460130E0A0EDB7E00E944205A7010D
S113023096010E942005C9018C509E4F0E94AB0478
S1130240FF90EF90DF90CF9008958AB1837E8AB9B2
S11302508BB18C618BB98AB1806E8AB90895882379
S113026021F08BB180628BB903C08BB18F7D8BB9C8
S1130270662321F08BB180648BB903C08BB18F7B73
S11302808BB9442321F08BB180688BB908958BB16D
S11302908F778BB9089580914501813051F018F022
S11302A0823069F0089540E061E080E00E942F010F
S11302B0089541E060E080E00E942F01089540E04D
S11302C060E081E00E942F0108958230B9F028F4A3
S11302D0882341F0813061F022C08330A9F084305A
S11302E0C9F01DC040E061E081E00E942F0117C009
S11302F041E061E080E00E942F0111C041E060E034
S113030081E00E942F010BC041E061E081E00E9486
S11303102F0105C040E060E081E00E942F012FEF33
S113032085EA9EE0215080409040E1F700C0000043
S11303300E944B01089580914501823049F4EAE717
S1130340F0E08081877F808380818F778083089528
S1130350EAE7F0E080818068808380818860808320
S11303608081806480830895FF920F931F93CF93BD
S1130370DF9300D000D01F92CDB7DEB7082F192F1E
S113038041E060E080E00E942F012FEF30E782E03F
S1130390215030408040E1F700C000000E944B0132
S11303A044E050E066E071E0802F912F0E949C05AC
S11303B0892BC1F5FE01319685E0DF011D928A95F6
S11303C0E9F7CE0105969F938F9301979F938F939F
S11303D001979F938F9301979F938F93FF93EF932D
S11303E08BE091E09F938F931F930F930E94E805F6
S11303F00FB6F894DEBF0FBECDBF059709F05EC0FF
S1130400898180934A018A81809349018B818093F9
S113041048018C81809347018D81809346010E941D
S1130420C8004CC06AE370E0802F912F0E948805B9
S1130430892B09F443C069E271E0802F912F0E9457
S113044083058C0169E271E080E090E00E948305FD
S11304500E946505F82E6BE271E0C8010E949305C5
S1130460892B19F4F0924A0127C06DE271E0C801AA
S11304700E949305892B19F4F09249011DC060E391
S113048071E0C8010E949305892B19F4F092480188
S113049013C063E371E0C8010E949305892B19F42A
S11304A0F092470109C066E371E0C8010E94930518
S11304B0892B11F4F09246010E94C8000F900F900E
S11304C00F900F900F90DF91CF911F910F91FF909C
S11304D008951F920F920FB60F9211245F936F939A
S11304E07F938F939F93AF93BF93EF93FF938091E9
S11304F04B018230A9F028F4882341F0813059F06F
S11305001DC0833091F08430A9F018C08091790027
S113051080934A0113C080917900809349010EC0F1
S1130520809179008093480109C08091790080937B
S1130530470104C0809179008093460180914B016A
S113054090E0019665E070E00E940C0580934B01F9
S1130550ECE7F0E0808190914B01807F892B8083D0
S1130560EAE7F0E0808180648083FF91EF91BF919E
S1130570AF919F918F917F916F915F910F900FBE7B
S11305800F901F901895CF93DF93CDB7DEB7E29706
S11305900FB6F894DEBF0FBECDBF0E9459000E9473
S11305A0F9030E9417040E9425010E944B0187E66B
S11305B090E00E94B00478940E949B0180914501D0
S11305C0882321F080914501813011F40E94C800F4
S11305D080914501823059F462E3CE0101960E9474
S11305E0CF04882321F0CE0101960E94B4014A99D8
S11305F017C02FEF85EA9EE0215080409040E1F73C
S113060000C000008091450190E0019663E070E035
S11306100E940C05809345010E944B010E949B019E
S11306204B99A0C080914501813009F09BC0EFEF48
S1130630F5EA2EE0E150F0402040E1F700C0000070
S113064080914401853028F11092440110E01DC0CE
S113065041E061E081E00E942F018FEF93ECE9E03B
S113066081509040E040E1F700C0000040E060E0CD
S113067080E00E942F01FFEF23EC89E0F15020403D
S11306808040E1F700C000001F5F133008F30E94B0
S11306904B018091440190E020914A01FC01EE0F4E
S11306A0FF1FEE0FFF1F8E0F9F1FFC01E157FE4F30
S11306B020838091440190E020914901FC01EE0FD8
S11306C0FF1FEE0FFF1F8E0F9F1FFC01E157FE4F10
S11306D021838091440190E020914801FC01EE0FB8
S11306E0FF1FEE0FFF1F8E0F9F1FFC01E157FE4FF0
S11306F022838091440190E020914701FC01EE0F98
S1130700FF1FEE0FFF1F8E0F9F1FFC01E157FE4FCF
S113071023838091440190E020914601FC01EE0F77
S1130720FF1FEE0FFF1F8E0F9F1FFC01E157FE4FAF
S11307302483609144018091440190E09C01220F44
S1130740331F220F331F820F931F81579E4F0E9426
S11307507900809144010E946501809144018F5F7A
S1130760809344014C993EC0809145018130D1F57C
S11307709FEFE5EAFEE09150E040F040E1F700C071
S11307800000F12C2BC00F2D10E0C801880F991F19
S1130790880F991F080F191F01571E4F6F2DC8018D
S11307A00E949E00F801808180934A018181809398
S11307B04901828180934801838180934701848128
S11307C0809346010E94C800FFEF23ED80E3F150BF
S11307D020408040E1F700C00000F3948091440180
S11307E0F81688F2EFE3FCE93197F1F700C0000056
S11307F0E5CE84B1866084B982EA809380008AE180
S1130800809381008FE39CE9909387008093860016
S11308100895880F991F9093890080938800089504
S1130820880F991F90938B0080938A00089584B158
S1130830886384B914BC82E085BD81E080936E0036
S113084016BC08951F920F920FB60F9211242F9386
S11308503F936F937F938F939F93AF93BF938091B5
S11308604C0190914D01019690934D0180934C0160
S113087080914C0190914D01019719F485B18863E1
S113088085B9209104013091050136952795369557
S11308902795ABE7B4E10E94420596958795209190
S11308A04C0130914D018217930719F485B1877F6C
S11308B085B920910201309103013695279536952B
S11308C02795ABE7B4E10E94420596958795209160
S11308D04C0130914D018217930719F485B18F7E35
S11308E085B92091000130910101369527953695FF
S11308F02795ABE7B4E10E94420596958795209130
S11309004C0130914D018217930719F485B18F7D05
S113091085B980914C0190914D01883C910520F05E
S113092010924D0110924C01BF91AF919F918F9104
S11309307F916F913F912F910F900FBE0F901F9059
S113094018959093050180930401089590930301F1
S1130950809302010895909301018093000108950A
S11309609093C5008093C40088E18093C10086E021
S11309708093C20008959091C00095FFFCCF8093AE
S1130980C6000895CF93DF93EC0103C021960E9423
S1130990BB0488818111FACFDF91CF910895CF9361
S11309A0DF93AC0131C09091C6009D3011F09A30B4
S11309B0F9F4E0914E01EE2339F1EA01F0E0E15B54
S11309C0FE4F1082462F50E06FE471E0CE010E948A
S11309D0AA0510924E0189E391E00E94C204CE015F
S11309E00E94C2048FE391E00E94C20481E011C01E
S11309F0E0914E01EF3340F421E02E0F20934E019D
S1130A00F0E0E15BFE4F90839091C00099235CF28B
S1130A1080E0DF91CF91089597FB072E16F40094A0
S1130A2007D077FD09D00E94510507FC05D03EF49C
S1130A30909581959F4F0895709561957F4F089586
S1130A40A1E21A2EAA1BBB1BFD010DC0AA1FBB1FCE
S1130A50EE1FFF1FA217B307E407F50720F0A21B40
S1130A60B30BE40BF50B661F771F881F991F1A94AD
S1130A7069F760957095809590959B01AC01BD01D7
S1130A80CF010895A29FB001B39FC001A39F700D31
S1130A90811D1124911DB29F700D811D1124911D82
S1130AA00895AA1BBB1B51E107C0AA1FBB1FA617B1
S1130AB0B70710F0A61BB70B881F991F5A95A9F703
S1130AC080959095BC01CD010895FC018827992754
S1130AD0E89421912032E9F3293010F02E30C8F344
S1130AE02B3241F02D3239F4689404C00E94E005A1
S1130AF0820F911D219120532A30C0F31EF490954A
S1130B0081959F4F089542E451E00E94B9050895EC
S1130B10FC018191861721F08823D9F7992708953C
S1130B203197CF010895FB01DC018D91019080196B
S1130B300110D9F3990B0895FB01DC014150504099
S1130B4030F08D910190801919F40020B9F7881BB9
S1130B50990B0895FB01DC014150504048F001908D
S1130B600D920020C9F701C01D9241505040E0F79A
S1130B700895FA01A191B081009719F41097E1F05A
S1130B80CD01DC01CD010D90002011F4C00113C092
S1130B90FB012191222319F02015D9F7F3CFFB0192
S1130BA02191201519F41E92119606C02223C1F733
S1130BB00D900020A1F7D001FA01A193B08308950C
S1130BC07AE0979F902D879F802D910D1124089591
S1130BD0AEE0B0E0EEEEF5E00C942C0985E08C83F9
S1130BE08B899C899A838983AE01495E5F4F6D89A5
S1130BF07E89CE0101960E949D072E96E2E00C9418
S1130C00480920FD09C0FC0123FD05C022FF02C0E4
S1130C107383628351834083089544FD17C046FD66
S1130C2017C0AB01BC01DA01FB01AA0FBB1FEE1F09
S1130C30FF1F1094D1F74A0F5B1F6E1F7F1FCB015C
S1130C40BA01660F771F881F991F09C033E001C0DE
S1130C5034E0660F771F881F991F3150D1F7620F58
S1130C60711D811D911D08950F931F93CF93DF93E1
S1130C708C01C8010E94C208EC0197FD08C00E94C3
S1130C80AE08892BB1F7B801CE010E940009CE014C
S1130C90DF91CF911F910F9108958F929F92AF9200
S1130CA0BF92EF92FF920F931F93CF93DF938C0128
S1130CB0D62F7A01B22E0E94C2089C0133272B3210
S1130CC0310531F02D32310561F48B2D8068B82E59
S1130CD0D15011F480E068C0C8010E94C20897FD99
S1130CE0F9CFCB2DCD7F2B2D207309F58033F9F46B
S1130CF0AA24AA94AD0E09F443C0C8010E94C208F4
S1130D0097FD3EC09C012F7D33272835310549F4DA
S1130D10C264D250A9F1C8010E94C20897FF07C05B
S1130D202FC0B6FE02C0C26001C0C261DA2D812CA0
S1130D30912C540120ED280F283080F0C4FF04C00A
S1130D40B8010E94000919C02A3040F0C6FFF8CF4C
S1130D502F7D3FEE320F363098F727504C2FC501C8
S1130D60B4010E940D064B015C01C260D15059F0E0
S1130D70C8010E94C20897FFDDCFC1FD04C0AACFFD
S1130D80812C912C5401C7FF08C0B094A094909476
S1130D908094811C911CA11CB11C2C2FB501A401B1
S1130DA0C7010E94010681E0DF91CF911F910F914D
S1130DB0FF90EF90BF90AF909F908F900895A0E226
S1130DC0B0E0E5EEF6E00C941F095C01962E7A0182
S1130DD0F9018E010F5F1F4F680180E2D8011D9257
S1130DE08A95E9F7D50113968C9080E090E0612C08
S1130DF0712C30E061E070E083FC259183FE219149
S1130E008F01522E211103C080E090E092C02E3554
S1130E1011F4009751F1432F50E0481759073CF45F
S1130E202D3559F12D3219F4772009F103C07720BB
S1130E3009F46AC0452D469546954695D601A40FFA
S1130E40B11D452D47708B0102C0000F111F4A953B
S1130E50E2F7A8015C91452B4C93651459F05614A4
S1130E6010F45394E7CF5A94E5CF31E004C07724CB
S1130E70739401C0712C0196BFCF772019F08E8135
S1130E8080628E83311103C08824839417C0F601D5
S1130E909E012F5D3F4F8081809581932E173F07E0
S1130EA0D1F7F2CFE114F10429F0D7018C93F701C3
S1130EB031967F019A94812C9920F9F0C5010E9402
S1130EC0C20897FD18C0FC01FF2723E0F595E795BC
S1130ED02A95E1F7EC0DFD1D208130E0AC0147704F
S1130EE0552702C0359527954A95E2F720FDDACFBC
S1130EF0B5010E940009811087CFE114F10411F0BB
S1130F00D7011C92C80115C0422F469546954695B7
S1130F10D601A40FB11D422F47708B0102C0000FF0
S1130F20111F4A95E2F7A8015C91452B4C93622E60
S1130F30A2CFA096EFE00C943B09A0E0B0E0E3EA76
S1130F40F7E00C941F096C01EB015A01FC011782B4
S1130F501682512CF601E380FE01E3FC8591E3FE49
S1130F608191182FEF01882309F4EEC090E00E94CC
S1130F70AE08892B21F0C6010E943406EBCF15324E
S1130F8041F4FE01E3FC1591E3FE1191EF011532EA
S1130F9081F4C6010E94C20897FDD4C0412F50E0DD
S1130FA09C01332724173507A9F2B6010E940009D2
S1130FB0CBC01A3239F4E3FC1591E3FE1191EF0131
S1130FC001E001C000E0F12C20ED210F2A3080F473
S1130FD002606F2D70E080E090E040E20E940D0618
S1130FE0F62EFE01E3FC1591E3FE1191EF01ECCF27
S1130FF001FF03C0F11003C0A7C0FF24FA94183600
S113100019F01C3651F010C0FE01E3FC1591E3FE0B
S11310101191EF01183641F408600460FE01E3FC0D
S11310201591E3FE1191EF01112309F48DC0612F95
S113103070E088E690E00E94B708892B09F484C028
S113104000FD07C0F50180809180C50102965C0116
S113105002C0812C912C1E3651F4F6014681578131
S113106060E070E0202FC4010E94010673CF1336A4
S1131070A9F401FD02C0FF24F394C6010E94C20832
S113108097FD60C08114910429F0F4018083C401A8
S113109001964C01FA94F110F0CF50C01B3559F46D
S11310A09E01A4016F2DC6010E94DF06EC01892B6D
S11310B009F044C03EC0C6010E94340697FD42C0F8
S11310C01F3661F128F4143639F1193651F128C06C
S11310D0133771F0153701F123C08114910429F0FD
S11310E0F4016082C40101964C01FA94FF2071F06E
S11310F0C6010E94C2083C0197FD08C00E94AE08C8
S1131100892B59F3B601C3010E940009811491048B
S1131110A9F0F401108212C0006203C0006101C092
S11311200064202FA4016F2DC6010E944D06811179
S113113005C0F6018381807329F406C000FD0ACF3F
S1131140539408CF552019F0852D90E002C08FEFFD
S11311509FEFCDB7DEB7EFE00C943B0991110C94EF
S11311601909803219F089508550C8F70895FC0197
S11311700590061621F00020D9F7C0010895319793
S1131180CF010895CF93DF93EC012B8120FF33C06F
S113119026FF0AC02F7B2B838E819F8101969F831C
S11311A08E838A8190E029C022FF0FC0E881F981F3
S11311B08081082E000C990B009719F420622B8370
S11311C01AC03196F983E8830EC0EA85FB85099538
S11311D097FF09C02B81019611F080E201C080E1E4
S11311E0822B8B8308C02E813F812F5F3F4F3F832B
S11311F02E83992702C08FEF9FEFDF91CF9108953F
S1131200FB01238120FF12C026FD10C08F3F3FEF5A
S1131210930761F082832F7D2064238326813781A5
S11312202150310937832683992708958FEF9FEF43
S113123008959927882708952F923F924F925F929D
S11312406F927F928F929F92AF92BF92CF92DF92D2
S1131250EF92FF920F931F93CF93DF93CDB7DEB737
S1131260CA1BDB0B0FB6F894DEBF0FBECDBF0994CB
S11312702A88398848885F846E847D848C849B8422
S1131280AA84B984C884DF80EE80FD800C811B8130
S1131290AA81B981CE0FD11D0FB6F894DEBF0FBE5F
S10D12A0CDBFED010895F894FFCFCF
S11312AADC05DC05DC054D4F5645004D4F564520FF
S11312BA256868752025686875202568687520255D
S11312CA6868752025686875003A0043004831004B
S11312DA42310042320048320045434F3A20000D61
S10512EA0A00F4
S9030000FC
